{
  "_format": "hh-sol-artifact-1",
  "contractName": "AnswerToEarn",
  "sourceName": "contracts/AnswerToEarn.sol",
  "abi": [
    {
      "inputs": [
        {
          "internalType": "uint256",
          "name": "_serviceFee",
          "type": "uint256"
        }
      ],
      "stateMutability": "nonpayable",
      "type": "constructor"
    },
    {
      "anonymous": false,
      "inputs": [
        {
          "indexed": false,
          "internalType": "uint256",
          "name": "id",
          "type": "uint256"
        },
        {
          "indexed": false,
          "internalType": "string",
          "name": "actionType",
          "type": "string"
        },
        {
          "indexed": true,
          "internalType": "address",
          "name": "executor",
          "type": "address"
        },
        {
          "indexed": false,
          "internalType": "uint256",
          "name": "timestamp",
          "type": "uint256"
        }
      ],
      "name": "Action",
      "type": "event"
    },
    {
      "anonymous": false,
      "inputs": [
        {
          "indexed": true,
          "internalType": "address",
          "name": "previousOwner",
          "type": "address"
        },
        {
          "indexed": true,
          "internalType": "address",
          "name": "newOwner",
          "type": "address"
        }
      ],
      "name": "OwnershipTransferred",
      "type": "event"
    },
    {
      "inputs": [
        {
          "internalType": "uint256",
          "name": "qid",
          "type": "uint256"
        },
        {
          "internalType": "string",
          "name": "comment",
          "type": "string"
        }
      ],
      "name": "addAnswer",
      "outputs": [],
      "stateMutability": "nonpayable",
      "type": "function"
    },
    {
      "inputs": [
        {
          "internalType": "uint256",
          "name": "fee",
          "type": "uint256"
        }
      ],
      "name": "changeFee",
      "outputs": [],
      "stateMutability": "nonpayable",
      "type": "function"
    },
    {
      "inputs": [
        {
          "internalType": "string",
          "name": "title",
          "type": "string"
        },
        {
          "internalType": "string",
          "name": "description",
          "type": "string"
        },
        {
          "internalType": "string",
          "name": "tags",
          "type": "string"
        }
      ],
      "name": "createQuestion",
      "outputs": [],
      "stateMutability": "payable",
      "type": "function"
    },
    {
      "inputs": [
        {
          "internalType": "uint256",
          "name": "qid",
          "type": "uint256"
        }
      ],
      "name": "deleteQuestion",
      "outputs": [],
      "stateMutability": "nonpayable",
      "type": "function"
    },
    {
      "inputs": [
        {
          "internalType": "uint256",
          "name": "qid",
          "type": "uint256"
        },
        {
          "internalType": "uint256",
          "name": "id",
          "type": "uint256"
        }
      ],
      "name": "getAnswer",
      "outputs": [
        {
          "components": [
            {
              "internalType": "uint256",
              "name": "id",
              "type": "uint256"
            },
            {
              "internalType": "uint256",
              "name": "qid",
              "type": "uint256"
            },
            {
              "internalType": "string",
              "name": "comment",
              "type": "string"
            },
            {
              "internalType": "address",
              "name": "owner",
              "type": "address"
            },
            {
              "internalType": "bool",
              "name": "deleted",
              "type": "bool"
            },
            {
              "internalType": "uint256",
              "name": "created",
              "type": "uint256"
            }
          ],
          "internalType": "struct AnswerToEarn.AnswerStruct",
          "name": "",
          "type": "tuple"
        }
      ],
      "stateMutability": "view",
      "type": "function"
    },
    {
      "inputs": [
        {
          "internalType": "uint256",
          "name": "qid",
          "type": "uint256"
        }
      ],
      "name": "getAnswers",
      "outputs": [
        {
          "components": [
            {
              "internalType": "uint256",
              "name": "id",
              "type": "uint256"
            },
            {
              "internalType": "uint256",
              "name": "qid",
              "type": "uint256"
            },
            {
              "internalType": "string",
              "name": "comment",
              "type": "string"
            },
            {
              "internalType": "address",
              "name": "owner",
              "type": "address"
            },
            {
              "internalType": "bool",
              "name": "deleted",
              "type": "bool"
            },
            {
              "internalType": "uint256",
              "name": "created",
              "type": "uint256"
            }
          ],
          "internalType": "struct AnswerToEarn.AnswerStruct[]",
          "name": "Answers",
          "type": "tuple[]"
        }
      ],
      "stateMutability": "view",
      "type": "function"
    },
    {
      "inputs": [
        {
          "internalType": "uint256",
          "name": "qid",
          "type": "uint256"
        }
      ],
      "name": "getQuestion",
      "outputs": [
        {
          "components": [
            {
              "internalType": "uint256",
              "name": "id",
              "type": "uint256"
            },
            {
              "internalType": "string",
              "name": "title",
              "type": "string"
            },
            {
              "internalType": "string",
              "name": "description",
              "type": "string"
            },
            {
              "internalType": "address",
              "name": "owner",
              "type": "address"
            },
            {
              "internalType": "address",
              "name": "winner",
              "type": "address"
            },
            {
              "internalType": "bool",
              "name": "paidout",
              "type": "bool"
            },
            {
              "internalType": "bool",
              "name": "deleted",
              "type": "bool"
            },
            {
              "internalType": "uint256",
              "name": "updated",
              "type": "uint256"
            },
            {
              "internalType": "uint256",
              "name": "created",
              "type": "uint256"
            },
            {
              "internalType": "uint256",
              "name": "answers",
              "type": "uint256"
            },
            {
              "internalType": "string",
              "name": "tags",
              "type": "string"
            },
            {
              "internalType": "uint256",
              "name": "prize",
              "type": "uint256"
            }
          ],
          "internalType": "struct AnswerToEarn.QuestionStruct",
          "name": "",
          "type": "tuple"
        }
      ],
      "stateMutability": "view",
      "type": "function"
    },
    {
      "inputs": [],
      "name": "getQuestions",
      "outputs": [
        {
          "components": [
            {
              "internalType": "uint256",
              "name": "id",
              "type": "uint256"
            },
            {
              "internalType": "string",
              "name": "title",
              "type": "string"
            },
            {
              "internalType": "string",
              "name": "description",
              "type": "string"
            },
            {
              "internalType": "address",
              "name": "owner",
              "type": "address"
            },
            {
              "internalType": "address",
              "name": "winner",
              "type": "address"
            },
            {
              "internalType": "bool",
              "name": "paidout",
              "type": "bool"
            },
            {
              "internalType": "bool",
              "name": "deleted",
              "type": "bool"
            },
            {
              "internalType": "uint256",
              "name": "updated",
              "type": "uint256"
            },
            {
              "internalType": "uint256",
              "name": "created",
              "type": "uint256"
            },
            {
              "internalType": "uint256",
              "name": "answers",
              "type": "uint256"
            },
            {
              "internalType": "string",
              "name": "tags",
              "type": "string"
            },
            {
              "internalType": "uint256",
              "name": "prize",
              "type": "uint256"
            }
          ],
          "internalType": "struct AnswerToEarn.QuestionStruct[]",
          "name": "Questions",
          "type": "tuple[]"
        }
      ],
      "stateMutability": "view",
      "type": "function"
    },
    {
      "inputs": [],
      "name": "owner",
      "outputs": [
        {
          "internalType": "address",
          "name": "",
          "type": "address"
        }
      ],
      "stateMutability": "view",
      "type": "function"
    },
    {
      "inputs": [
        {
          "internalType": "uint256",
          "name": "qid",
          "type": "uint256"
        },
        {
          "internalType": "uint256",
          "name": "id",
          "type": "uint256"
        }
      ],
      "name": "payWinner",
      "outputs": [],
      "stateMutability": "nonpayable",
      "type": "function"
    },
    {
      "inputs": [],
      "name": "renounceOwnership",
      "outputs": [],
      "stateMutability": "nonpayable",
      "type": "function"
    },
    {
      "inputs": [],
      "name": "serviceFee",
      "outputs": [
        {
          "internalType": "uint256",
          "name": "",
          "type": "uint256"
        }
      ],
      "stateMutability": "view",
      "type": "function"
    },
    {
      "inputs": [
        {
          "internalType": "address",
          "name": "newOwner",
          "type": "address"
        }
      ],
      "name": "transferOwnership",
      "outputs": [],
      "stateMutability": "nonpayable",
      "type": "function"
    },
    {
      "inputs": [
        {
          "internalType": "uint256",
          "name": "qid",
          "type": "uint256"
        },
        {
          "internalType": "string",
          "name": "title",
          "type": "string"
        },
        {
          "internalType": "string",
          "name": "description",
          "type": "string"
        },
        {
          "internalType": "string",
          "name": "tags",
          "type": "string"
        }
      ],
      "name": "updateQuestion",
      "outputs": [],
      "stateMutability": "nonpayable",
      "type": "function"
    }
  ],
  "bytecode": "0x60806040523480156200001157600080fd5b506040516200251d3803806200251d83398101604081905262000034916200009f565b600160005562000044336200004d565b600455620000b9565b600180546001600160a01b038381166001600160a01b0319831681179093556040519116919082907f8be0079c531659141344cd1fd0a4f28419497f9722a3daafe3b4186f6b6457e090600090a35050565b600060208284031215620000b257600080fd5b5051919050565b61245480620000c96000396000f3fe6080604052600436106100dd5760003560e01c80638da5cb5b1161007f578063a22c1bc911610059578063a22c1bc91461023d578063db88176f1461026a578063e93fa19c14610297578063f2fde38b146102aa57600080fd5b80638da5cb5b146101d357806397221ab7146101fb5780639a3c4c791461021d57600080fd5b8063715018a6116100bb578063715018a61461015a5780637491995a1461016f57806381e1dc941461018f5780638abdf5aa146101af57600080fd5b8063020c9945146100e25780631e59e02a146101045780636a1db1bf1461013a575b600080fd5b3480156100ee57600080fd5b506101026100fd366004611cdf565b6102ca565b005b34801561011057600080fd5b5061012461011f366004611d01565b6104ff565b6040516101319190611dbc565b60405180910390f35b34801561014657600080fd5b50610102610155366004611d01565b6108c3565b34801561016657600080fd5b5061010261092d565b34801561017b57600080fd5b5061010261018a366004611ec1565b610941565b34801561019b57600080fd5b506101026101aa366004611f08565b610b67565b3480156101bb57600080fd5b506101c560045481565b604051908152602001610131565b3480156101df57600080fd5b506001546040516001600160a01b039091168152602001610131565b34801561020757600080fd5b50610210610e07565b6040516101319190612085565b34801561022957600080fd5b50610102610238366004611d01565b611199565b34801561024957600080fd5b5061025d610258366004611cdf565b611339565b60405161013191906120da565b34801561027657600080fd5b5061028a610285366004611d01565b61144f565b60405161013191906120f4565b6101026102a5366004612107565b6116ae565b3480156102b657600080fd5b506101026102c536600461218f565b61199a565b6102d2611a13565b60008281526005602052604090205460ff166103095760405162461bcd60e51b8152600401610300906121b8565b60405180910390fd5b600082815260076020908152604080832084845290915290205481146103645760405162461bcd60e51b815260206004820152601060248201526f105b9cddd95c881b9bdd08199bdd5b9960821b6044820152606401610300565b600082815260066020526040902060040154600160a01b900460ff16156103cd5760405162461bcd60e51b815260206004820152601960248201527f5175657374696f6e20616c72656164792070616964206f7574000000000000006044820152606401610300565b6000828152600660205260409020600301546001600160a01b03163314806103ff57506001546001600160a01b031633145b6104415760405162461bcd60e51b8152602060048201526013602482015272556e617574686f72697a656420656e7469747960681b6044820152606401610300565b60008281526006602052604081206009015460045490919060649061046690846121fa565b6104709190612211565b6000858152600760209081526040808320878452825280832060030154888452600690925290912060040180546001600160a81b0319166001600160a01b03909216918217600160a01b1790559091506104d3816104ce8486612233565b611a6c565b6104ee6104e86001546001600160a01b031690565b83611a6c565b5050506104fb6001600055565b5050565b60606000805b600354811015610561576000848152600760205260408120859161052a846001612246565b8152602001908152602001600020600101540361054f578161054b81612259565b9250505b8061055981612259565b915050610505565b508067ffffffffffffffff81111561057b5761057b611e1e565b6040519080825280602002602001820160405280156105b457816020015b6105a1611c27565b8152602001906001900390816105995790505b5091506000805b6003548110156108bb57600085815260076020526040812086916105e0846001612246565b815260200190815260200160002060010154036108a957600085815260066020526040902060040154600160a01b900460ff161561074e57600085815260076020526040812090610632836001612246565b81526020019081526020016000206040518060c0016040529081600082015481526020016001820154815260200160028201805461066f90612272565b80601f016020809104026020016040519081016040528092919081815260200182805461069b90612272565b80156106e85780601f106106bd576101008083540402835291602001916106e8565b820191906000526020600020905b8154815290600101906020018083116106cb57829003601f168201915b505050918352505060038201546001600160a01b0381166020830152600160a01b900460ff1615156040820152600490910154606090910152848361072c81612259565b94508151811061073e5761073e6122ac565b60200260200101819052506108a9565b600085815260076020526040812081610768846001612246565b81526020019081526020016000206040518060c001604052908160008201548152602001600182015481526020016002820180546107a590612272565b80601f01602080910402602001604051908101604052809291908181526020018280546107d190612272565b801561081e5780601f106107f35761010080835404028352916020019161081e565b820191906000526020600020905b81548152906001019060200180831161080157829003601f168201915b505050918352505060038201546001600160a01b038116602080840191909152600160a01b90910460ff1615156040808401919091526004909301546060928301528251918201909252602e80825292935091906123f190830139604082015280858461088a81612259565b95508151811061089c5761089c6122ac565b6020026020010181905250505b806108b381612259565b9150506105bb565b505050919050565b6108cb611b05565b6000811180156108dc575060648111155b6109285760405162461bcd60e51b815260206004820152601b60248201527f466565206d757374206265206265747765656e2031202d2031303000000000006044820152606401610300565b600455565b610935611b05565b61093f6000611b5f565b565b60008281526005602052604090205460ff1661096f5760405162461bcd60e51b8152600401610300906121b8565b600082815260066020526040902060040154600160a01b900460ff16156109d85760405162461bcd60e51b815260206004820152601860248201527f5175657374696f6e20616c726561647920706169646f757400000000000000006044820152606401610300565b6000815111610a295760405162461bcd60e51b815260206004820152601860248201527f416e73776572206d757374206e6f7420626520656d70747900000000000000006044820152606401610300565b610a37600380546001019055565b610a3f611c27565b60035481526020810183905260408101829052336060820152610a60611bb1565b60a08201526000838152600660205260408120600701805491610a8283612259565b909155505060008381526007602090815260408083208451845282529182902083518155908301516001820155908201518291906002820190610ac59082612310565b50606082015160038201805460808501511515600160a01b026001600160a81b03199091166001600160a01b039093169290921791909117905560a090910151600490910155805133906000805160206123d183398151915290610b27611bb1565b60408051928352606060208401819052600e908401526d105b9cddd95c8818dc99585d195960921b608084015282015260a00160405180910390a2505050565b60008481526005602052604090205460ff16610b955760405162461bcd60e51b8152600401610300906121b8565b600084815260066020526040902060070154600111610bf65760405162461bcd60e51b815260206004820152601f60248201527f5175657374696f6e20616c7265616479207769746820616e73776572287329006044820152606401610300565b6000835111610c415760405162461bcd60e51b81526020600482015260176024820152767469746c65206d757374206e6f7420626520656d70747960481b6044820152606401610300565b6000825111610c925760405162461bcd60e51b815260206004820152601d60248201527f6465736372697074696f6e206d757374206e6f7420626520656d7074790000006044820152606401610300565b6000815111610cdc5760405162461bcd60e51b815260206004820152601660248201527574616773206d757374206e6f7420626520656d70747960501b6044820152606401610300565b6000848152600660205260409020600301546001600160a01b03163314610d3c5760405162461bcd60e51b8152602060048201526014602482015273556e617574686f72697a656420656e746974792160601b6044820152606401610300565b6000848152600660205260409020600101610d578482612310565b506000848152600660205260409020600801610d738282612310565b506000848152600660205260409020600201610d8f8382612310565b50610d98611bb1565b600085815260066020526040902060050155336000805160206123d183398151915285610dc3611bb1565b604080519283526060602084018190526010908401526f145d595cdd1a5bdb881d5c19185d195960821b608084015282015260a0015b60405180910390a250505050565b60606000805b600254811015610e685760066000610e26836001612246565b8152602081019190915260400160002060040154600160a81b900460ff16610e565781610e5281612259565b9250505b80610e6081612259565b915050610e0d565b508067ffffffffffffffff811115610e8257610e82611e1e565b604051908082528060200260200182016040528015610ebb57816020015b610ea8611c68565b815260200190600190039081610ea05790505b5091506000805b6002548110156111935760066000610edb836001612246565b8152602081019190915260400160002060040154600160a81b900460ff166111815760066000610f0c836001612246565b81526020019081526020016000206040518061018001604052908160008201548152602001600182018054610f4090612272565b80601f0160208091040260200160405190810160405280929190818152602001828054610f6c90612272565b8015610fb95780601f10610f8e57610100808354040283529160200191610fb9565b820191906000526020600020905b815481529060010190602001808311610f9c57829003601f168201915b50505050508152602001600282018054610fd290612272565b80601f0160208091040260200160405190810160405280929190818152602001828054610ffe90612272565b801561104b5780601f106110205761010080835404028352916020019161104b565b820191906000526020600020905b81548152906001019060200180831161102e57829003601f168201915b505050918352505060038201546001600160a01b0390811660208301526004830154908116604083015260ff600160a01b8204811615156060840152600160a81b9091041615156080820152600582015460a0820152600682015460c0820152600782015460e0820152600882018054610100909201916110cb90612272565b80601f01602080910402602001604051908101604052809291908181526020018280546110f790612272565b80156111445780601f1061111957610100808354040283529160200191611144565b820191906000526020600020905b81548152906001019060200180831161112757829003601f168201915b5050505050815260200160098201548152505084838061116390612259565b945081518110611175576111756122ac565b60200260200101819052505b8061118b81612259565b915050610ec2565b50505090565b60008181526005602052604090205460ff166111c75760405162461bcd60e51b8152600401610300906121b8565b6000818152600660205260409020600701546001116112285760405162461bcd60e51b815260206004820152601f60248201527f5175657374696f6e20616c7265616479207769746820616e73776572287329006044820152606401610300565b6000818152600660205260409020600301546001600160a01b031633146112885760405162461bcd60e51b8152602060048201526014602482015273556e617574686f72697a656420656e746974792160601b6044820152606401610300565b6112926002611bd0565b6000818152600660209081526040808320600401805460ff60a81b1916600160a81b17905560059091529020805460ff191690556112ce611bb1565b600082815260066020526040902060050155336000805160206123d1833981519152826112f9611bb1565b604080519283526060602084018190526010908401526f145d595cdd1a5bdb8819195b195d195960821b608084015282015260a00160405180910390a250565b611341611c27565b6007600084815260200190815260200160002060008381526020019081526020016000206040518060c0016040529081600082015481526020016001820154815260200160028201805461139490612272565b80601f01602080910402602001604051908101604052809291908181526020018280546113c090612272565b801561140d5780601f106113e25761010080835404028352916020019161140d565b820191906000526020600020905b8154815290600101906020018083116113f057829003601f168201915b505050918352505060038201546001600160a01b0381166020830152600160a01b900460ff161515604082015260049091015460609091015290505b92915050565b611457611c68565b60066000838152602001908152602001600020604051806101800160405290816000820154815260200160018201805461149090612272565b80601f01602080910402602001604051908101604052809291908181526020018280546114bc90612272565b80156115095780601f106114de57610100808354040283529160200191611509565b820191906000526020600020905b8154815290600101906020018083116114ec57829003601f168201915b5050505050815260200160028201805461152290612272565b80601f016020809104026020016040519081016040528092919081815260200182805461154e90612272565b801561159b5780601f106115705761010080835404028352916020019161159b565b820191906000526020600020905b81548152906001019060200180831161157e57829003601f168201915b505050918352505060038201546001600160a01b0390811660208301526004830154908116604083015260ff600160a01b8204811615156060840152600160a81b9091041615156080820152600582015460a0820152600682015460c0820152600782015460e08201526008820180546101009092019161161b90612272565b80601f016020809104026020016040519081016040528092919081815260200182805461164790612272565b80156116945780601f1061166957610100808354040283529160200191611694565b820191906000526020600020905b81548152906001019060200180831161167757829003601f168201915b505050505081526020016009820154815250509050919050565b60008351116116f95760405162461bcd60e51b81526020600482015260176024820152767469746c65206d757374206e6f7420626520656d70747960481b6044820152606401610300565b600082511161174a5760405162461bcd60e51b815260206004820152601d60248201527f6465736372697074696f6e206d757374206e6f7420626520656d7074790000006044820152606401610300565b60008151116117945760405162461bcd60e51b815260206004820152601660248201527574616773206d757374206e6f7420626520656d70747960501b6044820152606401610300565b600034116117da5760405162461bcd60e51b8152602060048201526013602482015272125b9cdd59999a58da595b9d08185b5bdd5b9d606a1b6044820152606401610300565b6117e2611c68565b6117f0600280546001019055565b60025481526020810184905260408101839052610140810182905234610160820152336060820152611820611bb1565b60e082015261182d611bb1565b61010082015280516000908152600660209081526040909120825181559082015182919060018201906118609082612310565b50604082015160028201906118759082612310565b5060608201516003820180546001600160a01b0319166001600160a01b03928316179055608083015160048301805460a086015160c0870151939094166001600160a81b031990911617600160a01b931515939093029290921760ff60a81b1916600160a81b9115159190910217905560e0820151600582015561010082015160068201556101208201516007820155610140820151600882019061191a9082612310565b50610160919091015160099091015580516000908152600560205260409020805460ff19166001179055805133906000805160206123d183398151915290611960611bb1565b604080519283526060602084018190526010908401526f145d595cdd1a5bdb8818dc99585d195960821b608084015282015260a001610df9565b6119a2611b05565b6001600160a01b038116611a075760405162461bcd60e51b815260206004820152602660248201527f4f776e61626c653a206e6577206f776e657220697320746865207a65726f206160448201526564647265737360d01b6064820152608401610300565b611a1081611b5f565b50565b600260005403611a655760405162461bcd60e51b815260206004820152601f60248201527f5265656e7472616e637947756172643a207265656e7472616e742063616c6c006044820152606401610300565b6002600055565b6000826001600160a01b03168260405160006040518083038185875af1925050503d8060008114611ab9576040519150601f19603f3d011682016040523d82523d6000602084013e611abe565b606091505b5050905080611b005760405162461bcd60e51b815260206004820152600e60248201526d14185e5b595b9d0819985a5b195960921b6044820152606401610300565b505050565b6001546001600160a01b0316331461093f5760405162461bcd60e51b815260206004820181905260248201527f4f776e61626c653a2063616c6c6572206973206e6f7420746865206f776e65726044820152606401610300565b600180546001600160a01b038381166001600160a01b0319831681179093556040519116919082907f8be0079c531659141344cd1fd0a4f28419497f9722a3daafe3b4186f6b6457e090600090a35050565b6000611bbf426103e86121fa565b611bcb906103e8612246565b905090565b805480611c1f5760405162461bcd60e51b815260206004820152601b60248201527f436f756e7465723a2064656372656d656e74206f766572666c6f7700000000006044820152606401610300565b600019019055565b6040518060c0016040528060008152602001600081526020016060815260200160006001600160a01b03168152602001600015158152602001600081525090565b60405180610180016040528060008152602001606081526020016060815260200160006001600160a01b0316815260200160006001600160a01b0316815260200160001515815260200160001515815260200160008152602001600081526020016000815260200160608152602001600081525090565b60008060408385031215611cf257600080fd5b50508035926020909101359150565b600060208284031215611d1357600080fd5b5035919050565b6000815180845260005b81811015611d4057602081850181015186830182015201611d24565b506000602082860101526020601f19601f83011685010191505092915050565b80518252602081015160208301526000604082015160c06040850152611d8960c0850182611d1a565b6060848101516001600160a01b03169086015260808085015115159086015260a093840151949093019390935250919050565b6000602080830181845280855180835260408601915060408160051b870101925083870160005b82811015611e1157603f19888603018452611dff858351611d60565b94509285019290850190600101611de3565b5092979650505050505050565b634e487b7160e01b600052604160045260246000fd5b600082601f830112611e4557600080fd5b813567ffffffffffffffff80821115611e6057611e60611e1e565b604051601f8301601f19908116603f01168101908282118183101715611e8857611e88611e1e565b81604052838152866020858801011115611ea157600080fd5b836020870160208301376000602085830101528094505050505092915050565b60008060408385031215611ed457600080fd5b82359150602083013567ffffffffffffffff811115611ef257600080fd5b611efe85828601611e34565b9150509250929050565b60008060008060808587031215611f1e57600080fd5b84359350602085013567ffffffffffffffff80821115611f3d57600080fd5b611f4988838901611e34565b94506040870135915080821115611f5f57600080fd5b611f6b88838901611e34565b93506060870135915080821115611f8157600080fd5b50611f8e87828801611e34565b91505092959194509250565b6000610180825184526020830151816020860152611fba82860182611d1a565b91505060408301518482036040860152611fd48282611d1a565b9150506060830151611ff160608601826001600160a01b03169052565b50608083015161200c60808601826001600160a01b03169052565b5060a083015161202060a086018215159052565b5060c083015161203460c086018215159052565b5060e0838101519085015261010080840151908501526101208084015190850152610140808401518583038287015261206d8382611d1a565b61016095860151969095019590955250919392505050565b6000602080830181845280855180835260408601915060408160051b870101925083870160005b82811015611e1157603f198886030184526120c8858351611f9a565b945092850192908501906001016120ac565b6020815260006120ed6020830184611d60565b9392505050565b6020815260006120ed6020830184611f9a565b60008060006060848603121561211c57600080fd5b833567ffffffffffffffff8082111561213457600080fd5b61214087838801611e34565b9450602086013591508082111561215657600080fd5b61216287838801611e34565b9350604086013591508082111561217857600080fd5b5061218586828701611e34565b9150509250925092565b6000602082840312156121a157600080fd5b81356001600160a01b03811681146120ed57600080fd5b602080825260129082015271145d595cdd1a5bdb881b9bdd08199bdd5b9960721b604082015260600190565b634e487b7160e01b600052601160045260246000fd5b8082028115828204841417611449576114496121e4565b60008261222e57634e487b7160e01b600052601260045260246000fd5b500490565b81810381811115611449576114496121e4565b80820180821115611449576114496121e4565b60006001820161226b5761226b6121e4565b5060010190565b600181811c9082168061228657607f821691505b6020821081036122a657634e487b7160e01b600052602260045260246000fd5b50919050565b634e487b7160e01b600052603260045260246000fd5b601f821115611b0057600081815260208120601f850160051c810160208610156122e95750805b601f850160051c820191505b81811015612308578281556001016122f5565b505050505050565b815167ffffffffffffffff81111561232a5761232a611e1e565b61233e816123388454612272565b846122c2565b602080601f831160018114612373576000841561235b5750858301515b600019600386901b1c1916600185901b178555612308565b600085815260208120601f198616915b828110156123a257888601518255948401946001909101908401612383565b50858210156123c05787850151600019600388901b60f8161c191681555b5050505050600190811b0190555056feaee8e5d3bbb2f71a951b5632cee20f7ac487b9f8ab4f66a236f7694b13af7c6a48696464656e203e3e202a2a2a2a202a2a2a202a2a202a2a2a202a2a2a2a202a2a2a202a2a2a202a2a202a2a2a2aa2646970667358221220844a3afac7679b10de1faf52281ec4cbfb81551023f80dd5a3335751d5f1520264736f6c63430008110033",
  "linkReferences": {},
  "deployedLinkReferences": {}
}