{
  "_format": "hh-sol-artifact-1",
  "contractName": "AnswerToEarn",
  "sourceName": "contracts/AnswerToEarn.sol",
  "abi": [
    {
      "inputs": [
        {
          "internalType": "uint256",
          "name": "_serviceFee",
          "type": "uint256"
        }
      ],
      "stateMutability": "nonpayable",
      "type": "constructor"
    },
    {
      "anonymous": false,
      "inputs": [
        {
          "indexed": false,
          "internalType": "uint256",
          "name": "id",
          "type": "uint256"
        },
        {
          "indexed": false,
          "internalType": "string",
          "name": "actionType",
          "type": "string"
        },
        {
          "indexed": true,
          "internalType": "address",
          "name": "executor",
          "type": "address"
        },
        {
          "indexed": false,
          "internalType": "uint256",
          "name": "timestamp",
          "type": "uint256"
        }
      ],
      "name": "Action",
      "type": "event"
    },
    {
      "anonymous": false,
      "inputs": [
        {
          "indexed": true,
          "internalType": "address",
          "name": "previousOwner",
          "type": "address"
        },
        {
          "indexed": true,
          "internalType": "address",
          "name": "newOwner",
          "type": "address"
        }
      ],
      "name": "OwnershipTransferred",
      "type": "event"
    },
    {
      "inputs": [
        {
          "internalType": "uint256",
          "name": "qid",
          "type": "uint256"
        },
        {
          "internalType": "string",
          "name": "comment",
          "type": "string"
        }
      ],
      "name": "addAnswer",
      "outputs": [],
      "stateMutability": "nonpayable",
      "type": "function"
    },
    {
      "inputs": [
        {
          "internalType": "uint256",
          "name": "fee",
          "type": "uint256"
        }
      ],
      "name": "changeFee",
      "outputs": [],
      "stateMutability": "nonpayable",
      "type": "function"
    },
    {
      "inputs": [
        {
          "internalType": "string",
          "name": "title",
          "type": "string"
        },
        {
          "internalType": "string",
          "name": "description",
          "type": "string"
        },
        {
          "internalType": "string",
          "name": "tags",
          "type": "string"
        }
      ],
      "name": "createQuestion",
      "outputs": [],
      "stateMutability": "payable",
      "type": "function"
    },
    {
      "inputs": [
        {
          "internalType": "uint256",
          "name": "qid",
          "type": "uint256"
        }
      ],
      "name": "deleteQuestion",
      "outputs": [],
      "stateMutability": "nonpayable",
      "type": "function"
    },
    {
      "inputs": [
        {
          "internalType": "uint256",
          "name": "qid",
          "type": "uint256"
        },
        {
          "internalType": "uint256",
          "name": "id",
          "type": "uint256"
        }
      ],
      "name": "getAnswer",
      "outputs": [
        {
          "components": [
            {
              "internalType": "uint256",
              "name": "id",
              "type": "uint256"
            },
            {
              "internalType": "uint256",
              "name": "qid",
              "type": "uint256"
            },
            {
              "internalType": "string",
              "name": "comment",
              "type": "string"
            },
            {
              "internalType": "address",
              "name": "owner",
              "type": "address"
            },
            {
              "internalType": "bool",
              "name": "deleted",
              "type": "bool"
            },
            {
              "internalType": "uint256",
              "name": "created",
              "type": "uint256"
            }
          ],
          "internalType": "struct AnswerToEarn.AnswerStruct",
          "name": "",
          "type": "tuple"
        }
      ],
      "stateMutability": "view",
      "type": "function"
    },
    {
      "inputs": [
        {
          "internalType": "uint256",
          "name": "qid",
          "type": "uint256"
        }
      ],
      "name": "getAnswers",
      "outputs": [
        {
          "components": [
            {
              "internalType": "uint256",
              "name": "id",
              "type": "uint256"
            },
            {
              "internalType": "uint256",
              "name": "qid",
              "type": "uint256"
            },
            {
              "internalType": "string",
              "name": "comment",
              "type": "string"
            },
            {
              "internalType": "address",
              "name": "owner",
              "type": "address"
            },
            {
              "internalType": "bool",
              "name": "deleted",
              "type": "bool"
            },
            {
              "internalType": "uint256",
              "name": "created",
              "type": "uint256"
            }
          ],
          "internalType": "struct AnswerToEarn.AnswerStruct[]",
          "name": "",
          "type": "tuple[]"
        }
      ],
      "stateMutability": "view",
      "type": "function"
    },
    {
      "inputs": [
        {
          "internalType": "uint256",
          "name": "qid",
          "type": "uint256"
        }
      ],
      "name": "getQuestion",
      "outputs": [
        {
          "components": [
            {
              "internalType": "uint256",
              "name": "id",
              "type": "uint256"
            },
            {
              "internalType": "string",
              "name": "title",
              "type": "string"
            },
            {
              "internalType": "string",
              "name": "description",
              "type": "string"
            },
            {
              "internalType": "address",
              "name": "owner",
              "type": "address"
            },
            {
              "internalType": "address",
              "name": "winner",
              "type": "address"
            },
            {
              "internalType": "bool",
              "name": "paidout",
              "type": "bool"
            },
            {
              "internalType": "bool",
              "name": "refunded",
              "type": "bool"
            },
            {
              "internalType": "bool",
              "name": "deleted",
              "type": "bool"
            },
            {
              "internalType": "uint256",
              "name": "updated",
              "type": "uint256"
            },
            {
              "internalType": "uint256",
              "name": "created",
              "type": "uint256"
            },
            {
              "internalType": "uint256",
              "name": "answers",
              "type": "uint256"
            },
            {
              "internalType": "string",
              "name": "tags",
              "type": "string"
            },
            {
              "internalType": "uint256",
              "name": "prize",
              "type": "uint256"
            }
          ],
          "internalType": "struct AnswerToEarn.QuestionStruct",
          "name": "",
          "type": "tuple"
        }
      ],
      "stateMutability": "view",
      "type": "function"
    },
    {
      "inputs": [],
      "name": "getQuestions",
      "outputs": [
        {
          "components": [
            {
              "internalType": "uint256",
              "name": "id",
              "type": "uint256"
            },
            {
              "internalType": "string",
              "name": "title",
              "type": "string"
            },
            {
              "internalType": "string",
              "name": "description",
              "type": "string"
            },
            {
              "internalType": "address",
              "name": "owner",
              "type": "address"
            },
            {
              "internalType": "address",
              "name": "winner",
              "type": "address"
            },
            {
              "internalType": "bool",
              "name": "paidout",
              "type": "bool"
            },
            {
              "internalType": "bool",
              "name": "refunded",
              "type": "bool"
            },
            {
              "internalType": "bool",
              "name": "deleted",
              "type": "bool"
            },
            {
              "internalType": "uint256",
              "name": "updated",
              "type": "uint256"
            },
            {
              "internalType": "uint256",
              "name": "created",
              "type": "uint256"
            },
            {
              "internalType": "uint256",
              "name": "answers",
              "type": "uint256"
            },
            {
              "internalType": "string",
              "name": "tags",
              "type": "string"
            },
            {
              "internalType": "uint256",
              "name": "prize",
              "type": "uint256"
            }
          ],
          "internalType": "struct AnswerToEarn.QuestionStruct[]",
          "name": "",
          "type": "tuple[]"
        }
      ],
      "stateMutability": "view",
      "type": "function"
    },
    {
      "inputs": [],
      "name": "owner",
      "outputs": [
        {
          "internalType": "address",
          "name": "",
          "type": "address"
        }
      ],
      "stateMutability": "view",
      "type": "function"
    },
    {
      "inputs": [
        {
          "internalType": "uint256",
          "name": "qid",
          "type": "uint256"
        },
        {
          "internalType": "uint256",
          "name": "id",
          "type": "uint256"
        }
      ],
      "name": "payWinner",
      "outputs": [],
      "stateMutability": "nonpayable",
      "type": "function"
    },
    {
      "inputs": [],
      "name": "renounceOwnership",
      "outputs": [],
      "stateMutability": "nonpayable",
      "type": "function"
    },
    {
      "inputs": [],
      "name": "serviceFee",
      "outputs": [
        {
          "internalType": "uint256",
          "name": "",
          "type": "uint256"
        }
      ],
      "stateMutability": "view",
      "type": "function"
    },
    {
      "inputs": [
        {
          "internalType": "address",
          "name": "newOwner",
          "type": "address"
        }
      ],
      "name": "transferOwnership",
      "outputs": [],
      "stateMutability": "nonpayable",
      "type": "function"
    },
    {
      "inputs": [
        {
          "internalType": "uint256",
          "name": "qid",
          "type": "uint256"
        },
        {
          "internalType": "string",
          "name": "title",
          "type": "string"
        },
        {
          "internalType": "string",
          "name": "description",
          "type": "string"
        },
        {
          "internalType": "string",
          "name": "tags",
          "type": "string"
        }
      ],
      "name": "updateQuestion",
      "outputs": [],
      "stateMutability": "nonpayable",
      "type": "function"
    }
  ],
  "bytecode": "0x60806040523480156200001157600080fd5b50604051620022173803806200221783398101604081905262000034916200009f565b600160005562000044336200004d565b600455620000b9565b600180546001600160a01b038381166001600160a01b0319831681179093556040519116919082907f8be0079c531659141344cd1fd0a4f28419497f9722a3daafe3b4186f6b6457e090600090a35050565b600060208284031215620000b257600080fd5b5051919050565b61214e80620000c96000396000f3fe6080604052600436106100dd5760003560e01c80638da5cb5b1161007f578063a22c1bc911610059578063a22c1bc91461023d578063db88176f1461026a578063e93fa19c14610297578063f2fde38b146102aa57600080fd5b80638da5cb5b146101d357806397221ab7146101fb5780639a3c4c791461021d57600080fd5b8063715018a6116100bb578063715018a61461015a5780637491995a1461016f57806381e1dc941461018f5780638abdf5aa146101af57600080fd5b8063020c9945146100e25780631e59e02a146101045780636a1db1bf1461013a575b600080fd5b3480156100ee57600080fd5b506101026100fd3660046119f2565b6102ca565b005b34801561011057600080fd5b5061012461011f366004611a14565b61047d565b6040516101319190611acf565b60405180910390f35b34801561014657600080fd5b50610102610155366004611a14565b6106c5565b34801561016657600080fd5b50610102610777565b34801561017b57600080fd5b5061010261018a366004611bd4565b61078b565b34801561019b57600080fd5b506101026101aa366004611c1b565b610948565b3480156101bb57600080fd5b506101c560045481565b604051908152602001610131565b3480156101df57600080fd5b506001546040516001600160a01b039091168152602001610131565b34801561020757600080fd5b50610210610b87565b6040516101319190611dad565b34801561022957600080fd5b50610102610238366004611a14565b610f2f565b34801561024957600080fd5b5061025d6102583660046119f2565b61106e565b6040516101319190611e02565b34801561027657600080fd5b5061028a610285366004611a14565b611184565b6040516101319190611e1c565b6101026102a5366004611e2f565b6113f4565b3480156102b657600080fd5b506101026102c5366004611eb7565b6116fd565b60008281526005602052604090205460ff166103015760405162461bcd60e51b81526004016102f890611ee0565b60405180910390fd5b600082815260066020526040902060040154600160a01b900460ff161561036a5760405162461bcd60e51b815260206004820152601960248201527f5175657374696f6e20616c72656164792070616964206f75740000000000000060448201526064016102f8565b6000828152600660205260409020600301546001600160a01b031633146103c95760405162461bcd60e51b8152602060048201526013602482015272556e617574686f72697a656420656e7469747960681b60448201526064016102f8565b6000828152600660205260408120600901546004549091906064906103ee9084611f22565b6103f89190611f39565b6000858152600760209081526040808320878452825280832060030154888452600690925290912060040180546001600160a81b0319166001600160a01b03909216918217600160a01b17905590915061045b816104568486611f5b565b611776565b6104766104706001546001600160a01b031690565b83611776565b5050505050565b60606000805b6003548110156104df57600084815260076020526040812085916104a8846001611f6e565b815260200190815260200160002060010154036104cd57816104c981611f81565b9250505b806104d781611f81565b915050610483565b5060008167ffffffffffffffff8111156104fb576104fb611b31565b60405190808252806020026020018201604052801561053457816020015b610521611931565b8152602001906001900390816105195790505b5090506000805b6003548110156106bb5760008681526007602052604081208791610560846001611f6e565b815260200190815260200160002060010154036106a957600086815260076020526040812090610591836001611f6e565b81526020019081526020016000206040518060c001604052908160008201548152602001600182015481526020016002820180546105ce90611f9a565b80601f01602080910402602001604051908101604052809291908181526020018280546105fa90611f9a565b80156106475780601f1061061c57610100808354040283529160200191610647565b820191906000526020600020905b81548152906001019060200180831161062a57829003601f168201915b505050918352505060038201546001600160a01b0381166020830152600160a01b900460ff1615156040820152600490910154606090910152838361068b81611f81565b94508151811061069d5761069d611fd4565b60200260200101819052505b806106b381611f81565b91505061053b565b5090949350505050565b6001546001600160a01b031633146107155760405162461bcd60e51b8152602060048201526013602482015272556e617574686f72697a656420656e7469747960681b60448201526064016102f8565b600081118015610726575060648111155b6107725760405162461bcd60e51b815260206004820152601b60248201527f466565206d757374206265206265747765656e2031202d20313030000000000060448201526064016102f8565b600455565b61077f61180f565b6107896000611869565b565b60008151116107dc5760405162461bcd60e51b815260206004820152601860248201527f416e73776572206d757374206e6f7420626520656d707479000000000000000060448201526064016102f8565b60008281526005602052604090205460ff1661080a5760405162461bcd60e51b81526004016102f890611ee0565b610818600380546001019055565b610820611931565b600354815260208101839052604081018290523360608201526108416118bb565b60a0820152600083815260066020526040812060070180549161086383611f81565b9091555050600083815260076020908152604080832084518452825291829020835181559083015160018201559082015182919060028201906108a69082612038565b50606082015160038201805460808501511515600160a01b026001600160a81b03199091166001600160a01b039093169290921791909117905560a090910151600490910155805133906000805160206120f9833981519152906109086118bb565b60408051928352606060208401819052600e908401526d105b9cddd95c8818dc99585d195960921b608084015282015260a00160405180910390a2505050565b60008481526005602052604090205460ff166109765760405162461bcd60e51b81526004016102f890611ee0565b60008351116109c15760405162461bcd60e51b81526020600482015260176024820152767469746c65206d757374206e6f7420626520656d70747960481b60448201526064016102f8565b6000825111610a125760405162461bcd60e51b815260206004820152601d60248201527f6465736372697074696f6e206d757374206e6f7420626520656d70747900000060448201526064016102f8565b6000815111610a5c5760405162461bcd60e51b815260206004820152601660248201527574616773206d757374206e6f7420626520656d70747960501b60448201526064016102f8565b6000848152600660205260409020600301546001600160a01b03163314610abc5760405162461bcd60e51b8152602060048201526014602482015273556e617574686f72697a656420656e746974792160601b60448201526064016102f8565b6000848152600660205260409020600101610ad78482612038565b506000848152600660205260409020600801610af38282612038565b506000848152600660205260409020600201610b0f8382612038565b50610b186118bb565b600085815260066020526040902060050155336000805160206120f983398151915285610b436118bb565b604080519283526060602084018190526010908401526f145d595cdd1a5bdb881d5c19185d195960821b608084015282015260a0015b60405180910390a250505050565b60606000805b600254811015610be85760066000610ba6836001611f6e565b8152602081019190915260400160002060040154600160b01b900460ff16610bd65781610bd281611f81565b9250505b80610be081611f81565b915050610b8d565b5060008167ffffffffffffffff811115610c0457610c04611b31565b604051908082528060200260200182016040528015610c3d57816020015b610c2a611972565b815260200190600190039081610c225790505b5090506000805b600254811015610f265760066000610c5d836001611f6e565b8152602081019190915260400160002060040154600160b01b900460ff16610f145760066000610c8e836001611f6e565b8152602001908152602001600020604051806101a001604052908160008201548152602001600182018054610cc290611f9a565b80601f0160208091040260200160405190810160405280929190818152602001828054610cee90611f9a565b8015610d3b5780601f10610d1057610100808354040283529160200191610d3b565b820191906000526020600020905b815481529060010190602001808311610d1e57829003601f168201915b50505050508152602001600282018054610d5490611f9a565b80601f0160208091040260200160405190810160405280929190818152602001828054610d8090611f9a565b8015610dcd5780601f10610da257610100808354040283529160200191610dcd565b820191906000526020600020905b815481529060010190602001808311610db057829003601f168201915b505050918352505060038201546001600160a01b0390811660208301526004830154908116604083015260ff600160a01b8204811615156060840152600160a81b8204811615156080840152600160b01b90910416151560a0820152600582015460c0820152600682015460e0820152600782015461010082015260088201805461012090920191610e5e90611f9a565b80601f0160208091040260200160405190810160405280929190818152602001828054610e8a90611f9a565b8015610ed75780601f10610eac57610100808354040283529160200191610ed7565b820191906000526020600020905b815481529060010190602001808311610eba57829003601f168201915b50505050508152602001600982015481525050838380610ef690611f81565b945081518110610f0857610f08611fd4565b60200260200101819052505b80610f1e81611f81565b915050610c44565b50909392505050565b60008181526005602052604090205460ff16610f5d5760405162461bcd60e51b81526004016102f890611ee0565b6000818152600660205260409020600301546001600160a01b03163314610fbd5760405162461bcd60e51b8152602060048201526014602482015273556e617574686f72697a656420656e746974792160601b60448201526064016102f8565b610fc760026118da565b6000818152600660209081526040808320600401805460ff60b01b1916600160b01b17905560059091529020805460ff191690556110036118bb565b600082815260066020526040902060050155336000805160206120f98339815191528261102e6118bb565b604080519283526060602084018190526010908401526f145d595cdd1a5bdb8819195b195d195960821b608084015282015260a00160405180910390a250565b611076611931565b6007600084815260200190815260200160002060008381526020019081526020016000206040518060c001604052908160008201548152602001600182015481526020016002820180546110c990611f9a565b80601f01602080910402602001604051908101604052809291908181526020018280546110f590611f9a565b80156111425780601f1061111757610100808354040283529160200191611142565b820191906000526020600020905b81548152906001019060200180831161112557829003601f168201915b505050918352505060038201546001600160a01b0381166020830152600160a01b900460ff161515604082015260049091015460609091015290505b92915050565b61118c611972565b60066000838152602001908152602001600020604051806101a0016040529081600082015481526020016001820180546111c590611f9a565b80601f01602080910402602001604051908101604052809291908181526020018280546111f190611f9a565b801561123e5780601f106112135761010080835404028352916020019161123e565b820191906000526020600020905b81548152906001019060200180831161122157829003601f168201915b5050505050815260200160028201805461125790611f9a565b80601f016020809104026020016040519081016040528092919081815260200182805461128390611f9a565b80156112d05780601f106112a5576101008083540402835291602001916112d0565b820191906000526020600020905b8154815290600101906020018083116112b357829003601f168201915b505050918352505060038201546001600160a01b0390811660208301526004830154908116604083015260ff600160a01b8204811615156060840152600160a81b8204811615156080840152600160b01b90910416151560a0820152600582015460c0820152600682015460e082015260078201546101008201526008820180546101209092019161136190611f9a565b80601f016020809104026020016040519081016040528092919081815260200182805461138d90611f9a565b80156113da5780601f106113af576101008083540402835291602001916113da565b820191906000526020600020905b8154815290600101906020018083116113bd57829003601f168201915b505050505081526020016009820154815250509050919050565b600083511161143f5760405162461bcd60e51b81526020600482015260176024820152767469746c65206d757374206e6f7420626520656d70747960481b60448201526064016102f8565b60008251116114905760405162461bcd60e51b815260206004820152601d60248201527f6465736372697074696f6e206d757374206e6f7420626520656d70747900000060448201526064016102f8565b60008151116114da5760405162461bcd60e51b815260206004820152601660248201527574616773206d757374206e6f7420626520656d70747960501b60448201526064016102f8565b600034116115205760405162461bcd60e51b8152602060048201526013602482015272125b9cdd59999a58da595b9d08185b5bdd5b9d606a1b60448201526064016102f8565b611528611972565b611536600280546001019055565b600254815260208101849052604081018390526101608101829052346101808201523360608201526115666118bb565b6101008201526115746118bb565b61012082015280516000908152600660209081526040909120825181559082015182919060018201906115a79082612038565b50604082015160028201906115bc9082612038565b5060608201516003820180546001600160a01b039283166001600160a01b0319909116179055608083015160048301805460a086015160c087015160e08801511515600160b01b0260ff60b01b19911515600160a81b029190911661ffff60a81b19921515600160a01b026001600160a81b03199094169590961694909417919091171692909217179055610100820151600582015561012082015160068201556101408201516007820155610160820151600882019061167d9082612038565b50610180919091015160099091015580516000908152600560205260409020805460ff19166001179055805133906000805160206120f9833981519152906116c36118bb565b604080519283526060602084018190526010908401526f145d595cdd1a5bdb8818dc99585d195960821b608084015282015260a001610b79565b61170561180f565b6001600160a01b03811661176a5760405162461bcd60e51b815260206004820152602660248201527f4f776e61626c653a206e6577206f776e657220697320746865207a65726f206160448201526564647265737360d01b60648201526084016102f8565b61177381611869565b50565b6000826001600160a01b03168260405160006040518083038185875af1925050503d80600081146117c3576040519150601f19603f3d011682016040523d82523d6000602084013e6117c8565b606091505b505090508061180a5760405162461bcd60e51b815260206004820152600e60248201526d14185e5b595b9d0819985a5b195960921b60448201526064016102f8565b505050565b6001546001600160a01b031633146107895760405162461bcd60e51b815260206004820181905260248201527f4f776e61626c653a2063616c6c6572206973206e6f7420746865206f776e657260448201526064016102f8565b600180546001600160a01b038381166001600160a01b0319831681179093556040519116919082907f8be0079c531659141344cd1fd0a4f28419497f9722a3daafe3b4186f6b6457e090600090a35050565b60006118c9426103e8611f22565b6118d5906103e8611f6e565b905090565b8054806119295760405162461bcd60e51b815260206004820152601b60248201527f436f756e7465723a2064656372656d656e74206f766572666c6f77000000000060448201526064016102f8565b600019019055565b6040518060c0016040528060008152602001600081526020016060815260200160006001600160a01b03168152602001600015158152602001600081525090565b604051806101a0016040528060008152602001606081526020016060815260200160006001600160a01b0316815260200160006001600160a01b0316815260200160001515815260200160001515815260200160001515815260200160008152602001600081526020016000815260200160608152602001600081525090565b60008060408385031215611a0557600080fd5b50508035926020909101359150565b600060208284031215611a2657600080fd5b5035919050565b6000815180845260005b81811015611a5357602081850181015186830182015201611a37565b506000602082860101526020601f19601f83011685010191505092915050565b80518252602081015160208301526000604082015160c06040850152611a9c60c0850182611a2d565b6060848101516001600160a01b03169086015260808085015115159086015260a093840151949093019390935250919050565b6000602080830181845280855180835260408601915060408160051b870101925083870160005b82811015611b2457603f19888603018452611b12858351611a73565b94509285019290850190600101611af6565b5092979650505050505050565b634e487b7160e01b600052604160045260246000fd5b600082601f830112611b5857600080fd5b813567ffffffffffffffff80821115611b7357611b73611b31565b604051601f8301601f19908116603f01168101908282118183101715611b9b57611b9b611b31565b81604052838152866020858801011115611bb457600080fd5b836020870160208301376000602085830101528094505050505092915050565b60008060408385031215611be757600080fd5b82359150602083013567ffffffffffffffff811115611c0557600080fd5b611c1185828601611b47565b9150509250929050565b60008060008060808587031215611c3157600080fd5b84359350602085013567ffffffffffffffff80821115611c5057600080fd5b611c5c88838901611b47565b94506040870135915080821115611c7257600080fd5b611c7e88838901611b47565b93506060870135915080821115611c9457600080fd5b50611ca187828801611b47565b91505092959194509250565b60006101a0825184526020830151816020860152611ccd82860182611a2d565b91505060408301518482036040860152611ce78282611a2d565b9150506060830151611d0460608601826001600160a01b03169052565b506080830151611d1f60808601826001600160a01b03169052565b5060a0830151611d3360a086018215159052565b5060c0830151611d4760c086018215159052565b5060e0830151611d5b60e086018215159052565b506101008381015190850152610120808401519085015261014080840151908501526101608084015185830382870152611d958382611a2d565b61018095860151969095019590955250919392505050565b6000602080830181845280855180835260408601915060408160051b870101925083870160005b82811015611b2457603f19888603018452611df0858351611cad565b94509285019290850190600101611dd4565b602081526000611e156020830184611a73565b9392505050565b602081526000611e156020830184611cad565b600080600060608486031215611e4457600080fd5b833567ffffffffffffffff80821115611e5c57600080fd5b611e6887838801611b47565b94506020860135915080821115611e7e57600080fd5b611e8a87838801611b47565b93506040860135915080821115611ea057600080fd5b50611ead86828701611b47565b9150509250925092565b600060208284031215611ec957600080fd5b81356001600160a01b0381168114611e1557600080fd5b602080825260129082015271145d595cdd1a5bdb881b9bdd08199bdd5b9960721b604082015260600190565b634e487b7160e01b600052601160045260246000fd5b808202811582820484141761117e5761117e611f0c565b600082611f5657634e487b7160e01b600052601260045260246000fd5b500490565b8181038181111561117e5761117e611f0c565b8082018082111561117e5761117e611f0c565b600060018201611f9357611f93611f0c565b5060010190565b600181811c90821680611fae57607f821691505b602082108103611fce57634e487b7160e01b600052602260045260246000fd5b50919050565b634e487b7160e01b600052603260045260246000fd5b601f82111561180a57600081815260208120601f850160051c810160208610156120115750805b601f850160051c820191505b818110156120305782815560010161201d565b505050505050565b815167ffffffffffffffff81111561205257612052611b31565b612066816120608454611f9a565b84611fea565b602080601f83116001811461209b57600084156120835750858301515b600019600386901b1c1916600185901b178555612030565b600085815260208120601f198616915b828110156120ca578886015182559484019460019091019084016120ab565b50858210156120e85787850151600019600388901b60f8161c191681555b5050505050600190811b0190555056feaee8e5d3bbb2f71a951b5632cee20f7ac487b9f8ab4f66a236f7694b13af7c6aa2646970667358221220696919ef8dd45d80121ba5a7c717fc0858865c11830669f5164c28368fef060864736f6c63430008110033",
  "linkReferences": {},
  "deployedLinkReferences": {}
}